:020000040000FA
:1000000018F09FE518F09FE518F09FE518F09FE5C0
:1000100018F09FE50000A0E1F0FF1FE518F09FE554
:100020005800000040000000B81600004800000022
:100030004C000000000000005000000054000000D0
:10004000FEFFFFEAFEFFFFEAFEFFFFEAFEFFFFEA18
:10005000FEFFFFEAFEFFFFEA94009FE5AA10A0E37F
:100060005520A0E32430A0E3043080E50130A0E374
:10007000003080E50C1080E50C2080E5083090E52C
:10008000013B13E2FCFFFF0A0330A0E3003080E5F0
:100090000C1080E50C2080E558009FE50410A0E3DB
:1000A000041080E50210A0E3001080E548009FE501
:1000B000DBF021E300D0A0E1080040E2D7F021E32B
:1000C00000D0A0E1080040E2D1F021E300D0A0E19F
:1000D000080040E2D2F021E300D0A0E1030C40E2AE
:1000E000D3F021E300D0A0E1030C40E20C009FE537
:1000F00010FF2FE180C01FE000C01FE0901F0040F4
:1001000004010000000000EB2E0000EB2C008FE249
:10011000000C90E800A08AE000B08BE001704AE299
:100120000B005AE10000001A260000EB0F00BAE8AD
:1001300018E04FE2010013E303F0471013FF2FE133
:100140002417000044170000102052E27800B02865
:100150007800A128FBFFFF8A822EB0E13000B02892
:100160003000A12800409045004081451EFF2FE14E
:100170000030B0E30040B0E30050B0E30060B0E313
:10018000102052E27800A128FCFFFF8A822EB0E105
:100190003000A128003081451EFF2FE101C08FE211
:1001A0001CFF2FE11FB5059886460FBC009C02B0CE
:1001B0007047000001C08FE21CFF2FE130B475468C
:1001C000AE4630BC70470000070500EB0210A0E10E
:1001D000F1FFFFEB1CC09FE50FC08CE001001CE3AA
:1001E0000DE08F120FE0A0011CFF2FE101C08FE294
:1001F0001CFF2FE101F02AFA930000007847C04667
:1002000003002DE9EAFFFFEB0300BDE8140500EB56
:100210000C009FE50C109FE504209FE508309FE54A
:100220001EFF2FE170190040781C0040701900403B
:100230001D4B43431A00002100E0491C9142FCD3AE
:1002400070470DE07D20C000FFF7F2FF002000F0B6
:100250008DF87D20C00000F08CFB002000F086F8B7
:10026000F0E705E0012000F081F8322000F081FB8A
:10027000F8E782B000F01EF800200121030064229C
:10028000009101900100094800F072F9002002215C
:1002900003006422009101900100054800F068F914
:1002A00000F039FDC046FEE7E02E000063020000CA
:1002B00043020000514880690F21090408434F4957
:1002C000886101200004486170470F2109044B4AEE
:1002D000D161002806D0012809D002280CD00328BB
:1002E00014D10EE001210904444A51610FE00121BB
:1002F0004904424A51610AE0012189043F4A51619F
:1003000005E00121C9043D4A516100E0C046C046F4
:10031000704700B50300002B02D0012B12D108E07A
:1003200037480068401C364908608007800F086025
:1003300009E033480068401E314908608007800F9B
:10034000086000E0C046C0462D490878FFF7BDFFB1
:1003500008BC184700B50020FFF7DBFF08BC1847B2
:1003600000B50120FFF7D5FF08BC1847002806D0CC
:10037000012813D0022820D003283CD12CE01F49AB
:10038000496901221204114203D111001B4A516133
:1003900003E001210904194AD1612CE01749496998
:1003A00001225204114203D11100144A516103E0A9
:1003B00001214904114AD1611DE010494969012216
:1003C0009204114203D111000C4A516103E0012152
:1003D00089040A4AD1610EE0084949690122D20420
:1003E000114203D11100054A516103E00121C90402
:1003F000024AD161C046C04670470000008002E05A
:100400000000004010B5002406E014216143FD4ABD
:10041000881800F059FF641C042CF6D3FA4800F049
:1004200053FFFA4800F050FFF94800F04DFFF9483B
:1004300000F04AFFF84800F047FFF348F74908602A
:10044000F248F749086010BC08BC184710B5040012
:1004500000F0EDFFF3480068401CF2490860F248E4
:100460000068002808D1F0480460080000680128EE
:100470000ED1FFF7C7FF0BE0EC480068002807D15A
:10048000E9480068C06AE16A884201D8E648046029
:10049000E7480068401CE6490860E649E06A0968E8
:1004A000884202D9E349E06A08601422E16A5143B4
:1004B000D44A8818211D00F017FF00F0C3FFDB4865
:1004C0000068002807D0D8480068C06AE16A8842FE
:1004D00001D201F09BF910BC08BC1847FFB581B0F0
:1004E0000E000A9F0C9C216B0398401E8000081888
:1004F00000900098C008C0000090002E11D0002588
:1005000008E0715D200034304155705D002800D155
:1005100002E06D1C082DF4D3C04600213B2001559C
:1005200002E0002134200155042F00D30327E762A5
:10053000201D00F0D6FE2000183000F0D2FE24610D
:100540000420C01BA06164620020E0630021402001
:100550000155049A684603C800F002FF20600B981A
:10056000002801D00B98046005B0F0BC08BC184707
:10057000FFB585B01700B80000F0B1FF0600002EEF
:100580000BD0442000F0ABFF0400002C01D0266308
:1005900004E0300000F0F7FF00E00024002C10D051
:1005A00000220EA803C86B4613C303923A00089BAF
:1005B00005A803C8FFF792FF2000FFF747FF0125BA
:1005C00001E00025ED43280009B0F0BC08BC184745
:1005D000924909680968002901D1012100E0002140
:1005E000002904D00021C943934A116006E08B49D9
:1005F0000968C968C868904A41681160704710B5B9
:100600000400206B00F0BFFF200000F0BCFF10BC16
:1006100008BC184770B5050000F009FF002D02D195
:100620008148006800E028000400201D00F083FEDF
:10063000A06A002803D02000183000F07CFE7C481F
:100640000068401C7A49086077480068844209D1F4
:10065000211D704800F048FE78480068401C77492A
:10066000086009E06F480068401E6E49086020007D
:10067000FFF7C5FFFFF7ACFF00F0E4FE6B48006832
:10068000002805D068480068844201D101F0BEF816
:1006900070BC08BC1847F8B5002000906848006896
:1006A000002864D167480068451C66480560002D35
:1006B0000FD15A4807685A48006858490860584896
:1006C000076061480068401C5F490860FFF780FFD1
:1006D000C0465948006885423DD3C0464F4800682F
:1006E0000068002801D1012000E00020002804D08B
:1006F0000020C043504908602CE048480068C068AA
:10070000C4686668B54202D24B48066022E0201DEC
:1007100000F011FEA06A002803D02000183000F07D
:100720000AFE4449E06A0968884202D94149E06A00
:1007300008601422E16A5143324A8818211D00F0F2
:10074000D3FD3949E06A0968C96A8842C6D30120E5
:100750000090C3E7C04634480068C06A142148438B
:1007600028490858012801D90120009004E03748A1
:100770000068401C3549086035480068002801D0F1
:10078000012000900098F8BC08BC184770B5002400
:10079000002600F04CFE2A480068401E28490860E8
:1007A00008000068002875D11E480068002871D034
:1007B00022E01748C068C4682000183000F0BBFD74
:1007C000201D00F0B8FD1B49E06A0968884202D983
:1007D0001849E06A08601422E16A5143094A8818FE
:1007E000211D00F081FD1049E06A0968C96A88424C
:1007F00002D301201649086005480068002829D165
:10080000012028E05C000040AC000040C000004037
:10081000D4000040E8000040FC00004038000040E8
:100820003C0000400C000040040000401800004064
:1008300028000040140000402C0000400800004048
:100840003400004010000040240000401C00004024
:100850002000004000200028ABD0002C01D0FFF782
:10086000B7FEFE480568002D0DD0C046FFF713FF08
:10087000002802D00120FA4908606D1E002DF5D134
:100880000020F6490860F6480068002802D00126DA
:1008900000F0BCFF00F0D6FD300070BC08BC18476B
:1008A000F8B505000E00EF480768EF480068001D26
:1008B00000F041FD681C08D1002E06D0EA4801680E
:1008C000091DEA4800F010FD1AE07C19E6480068AE
:1008D0004460BC4207D2E4480168091DE44800684E
:1008E00000F00EFD0CE0E0480168091DE1480068D9
:1008F00000F006FDE0480068844201D2DE48046052
:10090000F8BC08BC1847DD480068401CDB4908609B
:100910007047F3B581B0040000200090FFF7F3FFAB
:10092000D0480668216802980D182068B04207D99F
:100930002068A8420BD9B54209D90120009006E0F1
:100940002068A84201D8B54201D901200090256055
:100950000098002803D0A81B0021FFF7A1FFFFF794
:1009600015FF0700002F01D100F050FFFEBC08BCAE
:10097000184770B504000025002C08D0FFF7C3FF0E
:1009800000212000FFF78CFFFFF700FF0500002D7E
:1009900001D100F03BFF70BC08BC184770B50400E3
:1009A00000F045FD002C02D1AF48006800E02000B7
:1009B0000600F56A00F046FD280070BC08BC184728
:1009C00010B401000023002902D1A74C246800E0E4
:1009D0000C002200D06A10BC7047FEB507000D0065
:1009E00000200090042D00D3032500F020FD002FEF
:1009F00002D19D48006800E038000400E66AAE427B
:100A000043D0B5420BD99848006884420DD096482F
:100A10000068C06AA84208D80120009005E092480A
:100A20000068844201D101200090E06A0190E562F3
:100A3000A069C00FC00702D10420401BA0616169FA
:100A40001422019850438E4A8018814201D101201E
:100A500000E00020002812D0201D00F06CFC894925
:100A6000E06A0968884202D98649E06A086014226F
:100A7000E16A5143824A8818211D00F035FC009834
:100A8000002801D000F0C2FEC04600F0DBFCFEBC36
:100A900008BC184779480068002803D00120704935
:100AA000086027E000206E4908607648016800E091
:100AB000491E14204843724A1058002801D10120D1
:100AC00000E000200028F3D114224A436C4BD018D8
:100AD000426852684260020008324368934202D181
:100AE0004268526842604268D2685F4B1A6065484B
:100AF0000160C046704770B5050000F098FC002DFD
:100B000002D15948006800E028000400201D00F0D0
:100B100012FCA06A002803D02000183000F00BFC63
:100B2000211D524800F0E0FB4020005D012802D169
:100B300000214020015500F085FC53480068002842
:100B400005D000F074FCFFF743FD00F07BFC464845
:100B50000068844212D14C480068002802D000F09E
:100B600055FE0BE04148006848490968884203D1B6
:100B700000203D49086001E0FFF78CFF70BC08BC15
:100B8000184710B4010000200A00384C5369A342F2
:100B900001D1012300E00023002B11D03C4C936ACB
:100BA000A34201D1012300E00023002B08D1936A66
:100BB000002B01D1012300E00023002B00D00120F5
:100BC00010BC704770B505002C00274800688442AF
:100BD00025D0002C23D000F02AFC2000FFF7D1FF05
:100BE00000281AD0201D00F0A6FB2649E06A0968FB
:100BF000884202D92349E06A08601422E16A51431D
:100C00001F4A8818211D00F06FFB1749E06A096828
:100C1000C96A884201D300F0F9FD00F013FC70BCF2
:100C200008BC1847F8B5050000262C000027200056
:100C3000FFF7A7FF002840D010480068002837D1F0
:100C40000949E06A0968C96A884200D30126201D63
:100C500000F071FB0B49E06A09681BE01C000040D2
:100C6000200000401000004004000040FC00004054
:100C70003C000040380000402C00004034000040A0
:100C80005C00004014000040180000400C000040D0
:100C9000D4000040884202D9FB49E06A086014226F
:100CA000E16A5143F94A8818211D00F01DFB04E058
:100CB00021001831F64800F017FB3000F8BC08BCE2
:100CC000184710B516E000F0B2FBF248C068C468DF
:100CD000201D00F030FBF0480068401EEE4908601F
:100CE000EE480068401EED49086000F0ABFB2000B4
:100CF000FFF785FCE94800680028E4D110BC08BC77
:100D00001847C046FFF7DDFFE04800680128F9D921
:100D100000F07CFDF6E71CB5E14800210B005A22EB
:100D200000910190DFA1E148FFF722FC0400012CB3
:100D30000CD100F06FFDA01EDD4908600120DD49E7
:100D400008600020DC49086000F067FB1CBC08BCA0
:100D5000184710B500F05EFD0020D649086000F08D
:100D600065FB10BC08BC184710B500F060FBD2480A
:100D7000046800F067FB200010BC08BC1847002185
:100D8000CD4A10687047C4480068704701000029C8
:100D900002D1CA48006800E00800020010003430A8
:100DA000704770B505000C00C44801681831280070
:100DB00000F0A6FA01212000FFF772FD70BC08BC0C
:100DC000184770B506000C0015000120C00720432D
:100DD000BA4909688861B94801681831300000F0E3
:100DE00083FA01212800FFF75BFD70BC08BC18479F
:100DF00070B50600F068C4682000183000F09BFA57
:100E0000AF480068002813D1201D00F094FA9E49D5
:100E1000E06A0968884202D99B49E06A08601422A6
:100E2000E16A5143994A8818211D00F05DFA04E0F7
:100E300021001831964800F057FAA049E06A096885
:100E4000C96A884204D9012501209E49086000E052
:100E50000025280070BC08BC184770B505000E00BE
:100E60000120C00730432860EC68280000F063FAD6
:100E7000201D00F060FA8449E06A0968884202D9BE
:100E80008149E06A08601422E16A51437F4A881868
:100E9000211D00F029FA8949E06A0968C96A884277
:100EA00002D901208749086070BC08BC184710B5FA
:100EB000040000F0BCFA8448006820607E480068A6
:100EC000606000F0BFFA10BC08BC18477E49096892
:100ED0000160794909684160704770B506000C00EF
:100EE00000F0A5FA744802687068131A2068401C64
:100EF00001D1002517E0744930680968884204D0A0
:100F00007068904201D801250DE02068984207D909
:100F10002068C01A20603000FFF7D8FF002502E0EB
:100F200000202060012500F08DFA280070BC08BC6C
:100F3000184701206349086070476049096888695B
:100F40005E490968C96A0422511A5C4A12689161B3
:100F5000704770B506000D0000F069FA5748006848
:100F6000C06B00280BD1012154480068403001704B
:100F7000002D04D02800FFF793FC00F047FC00F0A0
:100F800061FA00F054FA4D480068C46B002C0AD096
:100F9000002E04D0002049490968C86303E0601EA0
:100FA00046490968C8630021444800684030017020
:100FB00000F048FA200070BC08BC1847FFB581B0AB
:100FC000070014001D0000F032FA3C480068403071
:100FD0000078022812D03949096808003C30C96BF2
:100FE000B943016001213548006840300170002D8F
:100FF00004D02800FFF754FC00F008FC00F022FAAF
:1010000000F015FA002C03D02C480068C06B20605B
:101010002A48006840300078022801D0002608E005
:101020002649096808003C30CA6B02998A4302606D
:1010300001260021214800684030017000F002FACA
:10104000300005B0F0BC08BC1847FFB583B00D00F8
:1010500016001F0001200290039C00F0E8F9002F09
:1010600001D0E06B38604020005D019002214020FB
:101070000155330000F0E4FB0538042A2E30390016
:10108000E06B2843E06331E0140000405C00004066
:10109000D4000040E80000400C0000400800004080
:1010A0003000004049444C4500000000030D0000A2
:1010B0002C000040180000401000004004000040D8
:1010C000340000402000004024000040E06B401C41
:1010D000E0630BE0E56309E00198022801D0E563D5
:1010E00001E00020029001E000E0C046C046019807
:1010F00001281AD1201D00F01EF96D49E06A096827
:10110000884202D96A49E06A08601422E16A5143C0
:10111000684A8818211D00F0E7F86749E06A096805
:10112000C96A884201D900F071FB00F08BF902987E
:1011300007B0F0BC08BC1847FFB583B00D0016001F
:101140001F0001200190039C00200090002F01D07F
:10115000E06B38604020005D029002214020015584
:10116000330000F06DFB051604080C0E1700E06B51
:101170002843E0630FE0E06B401CE0630BE0E563B5
:1011800009E00298022801D0E56301E00020019007
:1011900001E000E0C046C046029801282BD1474834
:1011A0000068002813D1201D00F0C5F84049E06A0E
:1011B0000968884202D93E49E06A08601422E16A5F
:1011C00051433C4A8818211D00F08EF804E02100AC
:1011D00018313B4800F088F83749E06A0968C96A65
:1011E000884208D90C98002802D001210C9801608F
:1011F000012034490860019807B0F0BC08BC1847CA
:10120000F8B505000E002C00002000904020075D7E
:1012100002210155E06B401CE063012F29D12748D2
:101220000068002813D1201D00F085F82049E06AED
:101230000968884202D91E49E06A08601422E16AFE
:1012400051431C4A8818211D00F04EF804E021008B
:1012500018311B4800F048F81749E06A0968C96A64
:10126000884206D9002E01D00120306001201549A6
:101270000860F8BC08BC184770B50500002D02D105
:101280000D48006800E02800060000F0D0F840207B
:10129000805D022804D1002140208155012400E016
:1012A000002400F0CFF8200070BC08BC18470000F4
:1012B000140000405C000040040000403400004086
:1012C000D4000040200000400100083141600021AE
:1012D000C943816001000831C160016100210160E2
:1012E000704700210161704742684A6093688B60D3
:1012F000936859609160086103685B1C03607047E4
:1013000010B402000B685C1C01D1106907E01000EA
:10131000083000E04068446824689C42FAD9446878
:101320004C604C68A160886041600A611468641C6C
:10133000146010BC704701000A694B6888689860A7
:10134000081D09C858605068884201D188685060FB
:10135000002008611068401E10601068704700008F
:1013600030B40300001F0C1D0460001F3F4C0460DC
:10137000001F0360001F3E4C0460001F3D4C0460D2
:10138000001F3D4C0460001F3C4C0460001F3C4C9F
:101390000460001F3B4C0460001F3B4C0460001FB6
:1013A0003A4C0460001F3A4C0460001F394C046042
:1013B000001F394C0460001F64100460001F0260AD
:1013C000001F1F240460CC07E40F03D0202504680D
:1013D0002C430460001F0024046030BC70470021CF
:1013E0002E4AD1602E4811008861032151615114A9
:1013F000C968102291432B4AD1601100096910225B
:101400001143284A11612849284A11602421284A99
:1014100011600121214A5160704710B5FFF7DFFFCD
:1014200000F02CF9002010BC08BC1847704710B51C
:1014300000F0F0F91F480068401C1E49086010BC0D
:1014400008BC184710B51B48006800280AD0194886
:101450000068401E1749086008000068002801D194
:1014600000F0E4F910BC08BC18470000AAAAAAAA18
:10147000121212121111111110101010090909097C
:1014800008080808070707070606060605050505F4
:10149000040404040303030302020202004000E008
:1014A000983A000000F0FFFF4417000000F1FFFF32
:1014B00000F2FFFF40000040444AD008C000444A08
:1014C00010600022424B5A60424A434B5A6000224D
:1014D0001A6001003F4A4A601A000A607047F8B576
:1014E000040000200090FFF70EFA3C480068002836
:1014F00004D1FFF7E1FF012038490860002C08D033
:1015000008346007400F04D06007400F0821081A14
:101510000419002C31D02F4884422ED22C4F380091
:10152000056801E02F002D686868A04202D2286893
:101530000028F7D1284885421FD03868083000902D
:10154000286838606868001B102810D92E19686850
:10155000001B70606C6071681D4800E000680268E4
:1015600052688A42FAD3026832600660C0461C495B
:1015700068680968081A1A490860FFF707F90098AF
:10158000F8BC08BC184770B506003500002E16D010
:10159000083D2C00FFF7B7F961680D4800E00068CE
:1015A000026852688A42FAD30268226004600C49D9
:1015B0006068096840180A490860FFF7E7F870BCDE
:1015C00008BC18470648006870477047180100407B
:1015D0004C000040F8170000540000404800004054
:1015E0004400004070477047704700000E50A0E173
:1015F000180000EB05E0A0E10050B0E10D10A0E103
:101600000A30A0E10700C0E300D0A0E160D08DE285
:1016100020402DE9FDFAFFEB2040BDE80060A0E38B
:101620000070A0E30080A0E300B0A0E30710C1E3D6
:1016300005C0A0E1C009ACE8C009ACE8C009ACE84D
:10164000C009ACE801D0A0E11EFF2FE10400C046B4
:10165000C0462000FEF7D2FD00009FE51EFF2FE1EF
:101660001019004001C08FE21CFF2FE10149182032
:10167000ABDFFEE7260002001EFF2FE17847C046E1
:101680006C019FE5000090E500E090E564019FE5B6
:101690000200BEE8001080E50100BEE800F06FE146
:1016A000FF7FDEE80000A0E13CE09EE504F05EE2A2
:1016B000000000EF1EFF2FE104E08EE201002DE9A3
:1016C00000204DE90000A0E104D04DE20100BDE89A
:1016D000004020E900E0A0E10100BDE8FF7F4EE905
:1016E0000000A0E13CE04EE200004FE101002EE9E5
:1016F00000019FE5000090E501002EE9F0009FE564
:10170000001090E500E081E5EC009FE50FE0A0E12E
:1017100010FF2FE1D8009FE5000090E500E090E584
:10172000D0009FE50200BEE8001080E50100BEE8A1
:1017300000F06FE1FF7FDEE80000A0E13CE09EE505
:1017400004F05EE201002DE900204DE90000A0E177
:1017500004D04DE20100BDE8004020E900E0A0E136
:101760000100BDE8FF7F4EE90000A0E13CE04EE251
:1017700000004FE101002EE978009FE5000090E5B0
:1017800001002EE968009FE5001090E500E081E58A
:1017900068009FE50FE0A0E110FF2FE1000050E39B
:1017A0000200000A50009FE50FE0A0E110FF2FE1CA
:1017B0000100A0E348109FE5000081E544009FE59B
:1017C000000080E528009FE5000090E500E090E53E
:1017D00020009FE50200BEE8001080E50100BEE8A1
:1017E00000F06FE1FF7FDEE80000A0E13CE09EE555
:1017F00004F05EE20400004040000040950A000052
:1018000097060000004000E030F0FFFF7847C04638
:10181000A6FFFFEA7847C04600000FE1801080E392
:1018200001F021E1800000E21EFF2FE17847C04671
:1018300000000FE18000C0E300F021E11EFF2FE176
:101840007847C04601C05EE50C0053E10100003A54
:101850000C30DEE7000000EA0330DEE783C08EE0F4
:101860001CFF2FE184180000000000405C00000015
:1018700048010000E01800005C000040341F000038
:1018800070010000000000000000000000000000E7
:101890000000000000000000000000000000000048
:1018A0000000000000000000000000000000000038
:1018B0000000000000000000000000000000000028
:1018C000000000000F270000F817000000000000D3
:1018D0000000000000000000000000000000000008
:0400000500000104F2
:00000001FF
