:020000040000FA
:1000000018F09FE518F09FE518F09FE518F09FE5C0
:1000100018F09FE50000A0E1F0FF1FE518F09FE554
:100020005800000040000000682400004800000064
:100030004C000000000000005000000054000000D0
:10004000FEFFFFEAFEFFFFEAFEFFFFEAFEFFFFEA18
:10005000FEFFFFEAFEFFFFEA94009FE5AA10A0E37F
:100060005520A0E32430A0E3043080E50130A0E374
:10007000003080E50C1080E50C2080E5083090E52C
:10008000013B13E2FCFFFF0A0330A0E3003080E5F0
:100090000C1080E50C2080E558009FE50410A0E3DB
:1000A000041080E50210A0E3001080E548009FE501
:1000B000DBF021E300D0A0E1080040E2D7F021E32B
:1000C00000D0A0E1080040E2D1F021E300D0A0E19F
:1000D000080040E2D2F021E300D0A0E1030C40E2AE
:1000E000D3F021E300D0A0E1030C40E20C009FE537
:1000F00010FF2FE180C01FE000C01FE0C0200040C3
:1001000004010000000000EB2E0000EB2C008FE249
:10011000000C90E800A08AE000B08BE001704AE299
:100120000B005AE10000001A260000EB0F00BAE8AD
:1001300018E04FE2010013E303F0471013FF2FE133
:10014000E024000000250000102052E27800B028D2
:100150007800A128FBFFFF8A822EB0E13000B02892
:100160003000A12800409045004081451EFF2FE14E
:100170000030B0E30040B0E30050B0E30060B0E313
:10018000102052E27800A128FCFFFF8A822EB0E105
:100190003000A128003081451EFF2FE101C08FE211
:1001A0001CFF2FE11FB5059886460FBC009C02B0CE
:1001B0007047000001C08FE21CFF2FE130B475468C
:1001C000AE4630BC70470000690800EB0210A0E1A9
:1001D000F1FFFFEB1CC09FE50FC08CE001001CE3AA
:1001E0000DE08F120FE0A0011CFF2FE101C08FE294
:1001F0001CFF2FE102F0EEF8E30000007847C04654
:1002000003002DE9EAFFFFEB0300BDE8760800EBF1
:100210000C009FE50C109FE504209FE508309FE54A
:100220001EFF2FE1A01A0040A81D0040A01A0040A8
:1002300070B505000C000021C943206801F086FC60
:1002400001280DD1280000F05DF9C04600F06BF9DF
:100250000028FBD100231A001900206801F0F0FAF1
:1002600070BC08BC184704001FE000F0E7FE2C49F2
:10027000086021002BA0FFF7DBFF00F0DFFE28491C
:100280000968401A2B4908602B492A48006800F089
:10029000AEF8294929A000F088F821002648FFF788
:1002A000C7FFFF202D3000F0CEFCDEE7040007E0A2
:1002B00000F0F1F9002803D0210021A0FFF7B8FFDA
:1002C000F6E784B000F0E0F9FF202D3000F05BF994
:1002D00003220021012001F0FDF90390039800287A
:1002E00005D000231A001900039801F0A9FA002094
:1002F000012103AB8022009101900100134800F01E
:10030000A1FA0020012103AB80220091019001009D
:100310000F4800F097FA00F068FEC046FEE70000C4
:10032000000000402D4142434445454647482D3A90
:100330000000000004000040640000400A000000CB
:100340002D4B6579626F6172642D0A0067020000AF
:10035000AD0200000200002004E0135C0B54431CBB
:100360001806000E135C002BF7D1135C0B5470477A
:1003700010B402000B00002109E0505C5C5CA0425C
:1003800002D0002010BC7047481C0106090E505CCA
:10039000002802D0585C0028EFD1505C5C5CA04281
:1003A00001D00020EEE70120ECE770B506000C005C
:1003B000002502E0681C05062D0E605D0028F9D1BD
:1003C00061193000FFF7C6FF70BC08BC184710B4B5
:1003D0000B00002106E0445C9C4200D142544C1CBE
:1003E0002106090E445C002CF5D110BC704730B4D6
:1003F000030030240C7078244C7000248C71002091
:1004000014E085001C00EC402207120F0A2A05DACE
:100410001400303405252D1A4C5504E014003734EF
:1004200005252D1A4C55441C2006000E0428E8DB37
:1004300030BC704730B403000020086018783028C2
:1004400005D15878782802D19878002802D1012067
:1004500030BC7047022420E01A5D062C01DB01202D
:10046000F6E7086800010860302A07DB392A05DC56
:10047000100030380D68281808600BE0412A07DBAF
:10048000462A05DC100037380D682818086001E09E
:100490000120DDE7601C0406240E185D0028DBD176
:1004A000C046D5E770B506000C00002502E0681CC8
:1004B00005062D0E605D0028F9D161193000FFF7A7
:1004C00096FF70BC08BC18475DC08FE21CFF2FE18F
:1004D0004648407C454A115C00290CD11000007C44
:1004E000002803D1012010740D20704700203F4ADE
:1004F0001074D073F9E73D48407C401C3B4A50746F
:100500000800F2E710B5040001203849C873002044
:1005100048742000FFF71EFFFFF7DAFF3449087028
:1005200010BC08BC18473148C07B70473149C97BB3
:100530000F2903DB02212F4A117414E00D280AD180
:1005400000212C4AD27B2B4B995401211A001174A3
:100550000021D17307E02749C97B264A5054110076
:10056000C97B491CD17370472248007C704710B585
:10057000040021001F48FFF7EDFE00201D4908740C
:1005800010BC08BC184770B505002E0131001A4890
:1005900001F038FF04001948006855210843174945
:1005A00008601348007B83210843114908730C70CD
:1005B000240A0C710800007B802188430C490873D1
:1005C0000800007903210843094908710C480D49C6
:1005D000486026200C4948600C48006940210843C7
:1005E0000A49086170BC08BC18470000630100405C
:1005F00000C000E075010040C0E1E40000C002E07E
:100600001006000000F1FFFF00F2FFFF00F0FFFF07
:100610001F502DE960009FE50840D0E50F0004E27F
:10062000040050E30600001A4C009FE50000D0E5EE
:1006300048109FE50000C1E5000081E20000D0E520
:10064000A0FFFFEB0F0004E2020050E30600001AD7
:100650002C009FE50F00D0E5010050E30200001AD6
:10066000D50700EB10109FE50000C1E50000A0E3F6
:10067000D00F00E51F50BDE804F05EE200C000E0CE
:10068000080000406301004012488068F021884360
:100690001049886070470F4800681021084201D156
:1006A000012070470B4800682021084201D1022038
:1006B000F7E7084800684021084201D10320F0E72D
:1006C000044800688021084201D10420E9E70020A5
:1006D000E7E70000008002E010B5002406E01421E6
:1006E0006143FD4A881800F059FF641C042CF6D3BE
:1006F000FA4800F053FFFA4800F050FFF94800F0C4
:100700004DFFF94800F04AFFF84800F047FFF34872
:10071000F7490860F248F749086010BC08BC184760
:1007200010B5040001F0E9FBF3480068401CF249F1
:100730000860F2480068002808D1F048046008000A
:10074000006801280ED1FFF7C7FF0BE0EC480068F6
:10075000002807D1E9480068C06AE16A884201D8E8
:10076000E6480460E7480068401CE6490860E6493E
:10077000E06A0968884202D9E349E06A0860142205
:10078000E16A5143D44A8818211D00F017FF01F097
:10079000BFFBDB480068002807D0D8480068C06A63
:1007A000E16A884201D201F00FFF10BC08BC184773
:1007B000FFB581B00E000A9F0C9C216B0398401E70
:1007C0008000081800900098C008C0000090002E1B
:1007D00011D0002508E0715D200034304155705D76
:1007E000002800D102E06D1C082DF4D3C046002182
:1007F0003B20015502E0002134200155042F00D395
:100800000327E762201D00F0D6FE2000183000F01C
:10081000D2FE24610420C01BA06164620020E0635A
:10082000002140200155049A684603C801F0FEFAF1
:1008300020600B98002801D00B98046005B0F0BC34
:1008400008BC1847FFB585B01700B80001F0ADFB34
:100850000600002E0BD0442001F0A7FB0400002C62
:1008600001D0266304E0300001F0F3FB00E0002437
:10087000002C10D000220EA803C86B4613C30392AD
:100880003A00089B05A803C8FFF792FF2000FFF776
:1008900047FF012501E00025ED43280009B0F0BC29
:1008A00008BC1847924909680968002901D101214B
:1008B00000E00021002904D00021C943934A1160BF
:1008C00006E08B490968C968C868904A41681160A8
:1008D000704710B50400206B01F0BBFB200001F055
:1008E000B8FB10BC08BC184770B5050001F005FB4B
:1008F000002D02D18148006800E028000400201D7E
:1009000000F083FEA06A002803D02000183000F019
:100910007CFE7C480068401C7A4908607748006883
:10092000844209D1211D704800F048FE78480068D3
:10093000401C7749086009E06F480068401E6E4916
:1009400008602000FFF7C5FFFFF7ACFF01F0E0FAF9
:100950006B480068002805D068480068844201D1CF
:1009600001F032FE70BC08BC1847F8B500200090BA
:1009700068480068002864D167480068451C6648DC
:100980000560002D0FD15A4807685A480068584939
:1009900008605848076061480068401C5F4908606B
:1009A000FFF780FFC0465948006885423DD3C046E6
:1009B0004F4800680068002801D1012000E00020B5
:1009C000002804D00020C043504908602CE048486B
:1009D0000068C068C4686668B54202D24B480660C9
:1009E00022E0201D00F011FEA06A002803D02000A4
:1009F000183000F00AFE4449E06A0968884202D9CA
:100A00004149E06A08601422E16A5143324A881879
:100A1000211D00F0D3FD3949E06A0968C96A88429E
:100A2000C6D301200090C3E7C04634480068C06ABE
:100A30001421484328490858012801D90120009071
:100A400004E037480068401C3549086035480068B4
:100A5000002801D0012000900098F8BC08BC18477D
:100A600070B50024002601F048FA2A480068401EAC
:100A70002849086008000068002875D11E480068F1
:100A8000002871D022E01748C068C46820001830E0
:100A900000F0BBFD201D00F0B8FD1B49E06A0968AD
:100AA000884202D91849E06A08601422E16A514379
:100AB000094A8818211D00F081FD1049E06A096883
:100AC000C96A884202D301201649086005480068B7
:100AD000002829D1012028E088010040D8010040E9
:100AE000EC010040000200401402004028020040D7
:100AF0004000004044000040140000400C00004052
:100B000020000040300000401C0000403400004045
:100B1000100000403C000040180000402C00004045
:100B2000240000402800004000200028ABD0002C0A
:100B300001D0FFF7B7FEFE480568002D0DD0C04676
:100B4000FFF713FF002802D00120FA4908606D1E4C
:100B5000002DF5D10020F6490860F648006800280D
:100B600002D0012601F030FD01F0D2F9300070BC56
:100B700008BC1847F8B505000E00EF480768EF48B5
:100B80000068001D00F041FD681C08D1002E06D051
:100B9000EA480168091DEA4800F010FD1AE07C19D6
:100BA000E64800684460BC4207D2E4480168091D79
:100BB000E448006800F00EFD0CE0E0480168091D03
:100BC000E148006800F006FDE0480068844201D278
:100BD000DE480460F8BC08BC1847DD480068401CCB
:100BE000DB4908607047F3B581B004000020009035
:100BF000FFF7F3FFD0480668216802980D182068B7
:100C0000B04207D92068A8420BD9B54209D90120C2
:100C1000009006E02068A84201D8B54201D9012021
:100C2000009025600098002803D0A81B0021FFF742
:100C3000A1FFFFF715FF0700002F01D101F0C4FC51
:100C4000FEBC08BC184770B504000025002C08D075
:100C5000FFF7C3FF00212000FFF78CFFFFF700FF25
:100C60000500002D01D101F0AFFC70BC08BC184795
:100C700070B5040001F041F9002C02D1AF480068C2
:100C800000E020000600F56A01F042F9280070BC7F
:100C900008BC184710B401000023002902D1A74C5A
:100CA000246800E00C002200D06A10BC7047FEB53A
:100CB00007000D0000200090042D00D3032501F053
:100CC0001CF9002F02D19D48006800E038000400A4
:100CD000E66AAE4243D0B5420BD9984800688442D8
:100CE0000DD096480068C06AA84208D8012000903C
:100CF00005E092480068844201D101200090E06A3A
:100D00000190E562A069C00FC00702D10420401B1A
:100D1000A06161691422019850438E4A8018814273
:100D200001D1012000E00020002812D0201D00F099
:100D30006CFC8949E06A0968884202D98649E06A00
:100D400008601422E16A5143824A8818211D00F08C
:100D500035FC0098002801D001F036FCC04601F0B7
:100D6000D7F8FEBC08BC184779480068002803D0B3
:100D700001207049086027E000206E49086076482D
:100D8000016800E0491E14204843724A10580028A8
:100D900001D1012000E000200028F3D114224A43B1
:100DA0006C4BD018426852684260020008324368B7
:100DB000934202D14268526842604268D2685F4BF7
:100DC0001A6065480160C046704770B5050001F0C3
:100DD00094F8002D02D15948006800E02800040072
:100DE000201D00F012FCA06A002803D0200018305B
:100DF00000F00BFC211D524800F0E0FB4020005D9C
:100E0000012802D100214020015501F081F853480A
:100E10000068002805D001F070F8FFF743FD01F0ED
:100E200077F846480068844212D14C480068002890
:100E300002D001F0C9FB0BE041480068484909684D
:100E4000884203D100203D49086001E0FFF78CFF94
:100E500070BC08BC184710B4010000200A00384CD0
:100E60005369A34201D1012300E00023002B11D0DC
:100E70003C4C936AA34201D1012300E00023002BE4
:100E800008D1936A002B01D1012300E00023002B3D
:100E900000D0012010BC704770B505002C00274819
:100EA0000068844225D0002C23D001F026F82000D1
:100EB000FFF7D1FF00281AD0201D00F0A6FB26491D
:100EC000E06A0968884202D92349E06A086014226E
:100ED000E16A51431F4A8818211D00F06FFB174932
:100EE000E06A0968C96A884201D301F06DFB01F02C
:100EF0000FF870BC08BC1847F8B5050000262C0098
:100F000000272000FFF7A7FF002840D01048006806
:100F1000002837D10949E06A0968C96A884200D3C4
:100F20000126201D00F071FB0B49E06A09681BE0F7
:100F30002400004028000040180000400C00004041
:100F400028020040440000404000004034000040BF
:100F50003C000040880100401C0000402000004090
:100F60001400004000020040884202D9FB49E06AB8
:100F700008601422E16A5143F94A8818211D00F0E3
:100F80001DFB04E021001831F64800F017FB30008B
:100F9000F8BC08BC184710B516E000F0AEFFF248E8
:100FA000C068C468201D00F030FBF0480068401E97
:100FB000EE490860EE480068401EED49086000F008
:100FC000A7FF2000FFF785FCE94800680028E4D16E
:100FD00010BC08BC1847C046FFF7DDFFE0480068BA
:100FE0000128F9D901F0F0FAF6E71CB5E148002133
:100FF0000B005A2200910190DFA1E148FFF722FC8B
:101000000400012C0CD101F0E3FAA01EDD490860B8
:101010000120DD4908600020DC49086000F063FF22
:101020001CBC08BC184710B501F0D2FA0020D64904
:10103000086000F061FF10BC08BC184710B500F054
:101040005CFFD248046800F063FF200010BC08BCBD
:1010500018470021CD4A10687047C448006870479F
:101060000100002902D1CA48006800E0080002001F
:1010700010003430704770B505000C00C44801689A
:101080001831280000F0A6FA01212000FFF772FDB8
:1010900070BC08BC184770B506000C001500012094
:1010A000C0072043BA4909688861B9480168183106
:1010B000300000F083FA01212800FFF75BFD70BCCF
:1010C00008BC184770B50600F068C46820001830E6
:1010D00000F09BFAAF480068002813D1201D00F0F3
:1010E00094FA9E49E06A0968884202D99B49E06AFD
:1010F00008601422E16A5143994A8818211D00F0C2
:101100005DFA04E021001831964800F057FAA04932
:10111000E06A0968C96A884204D9012501209E490C
:10112000086000E00025280070BC08BC184770B5B6
:1011300005000E000120C00730432860EC6828003D
:1011400000F063FA201D00F060FA8449E06A096843
:10115000884202D98149E06A08601422E16A514359
:101160007F4A8818211D00F029FA8949E06A096838
:10117000C96A884202D901208749086070BC08BC4E
:10118000184710B5040000F0B8FE844800682060DD
:101190007E480068606000F0BBFE10BC08BC1847C9
:1011A0007E4909680160794909684160704770B5F6
:1011B00006000C0000F0A1FE744802687068131A63
:1011C0002068401C01D1002517E074493068096887
:1011D000884204D07068904201D801250DE0206853
:1011E000984207D92068C01A20603000FFF7D8FF66
:1011F000002502E000202060012500F089FE280083
:1012000070BC08BC184701206349086070476049FA
:10121000096888695E490968C96A0422511A5C4AEA
:1012200012689161704770B506000D0000F065FE10
:1012300057480068C06B00280BD101215448006852
:1012400040300170002D04D02800FFF793FC01F01E
:10125000BBF900F05DFE00F050FE4D480068C46B25
:10126000002C0AD0002E04D0002049490968C86328
:1012700003E0601E46490968C863002144480068CD
:101280004030017000F044FE200070BC08BC1847DC
:10129000FFB581B0070014001D0000F02EFE3C4891
:1012A000006840300078022812D0394909680800E7
:1012B0003C30C96BB94301600121354800684030BA
:1012C0000170002D04D02800FFF754FC01F07CF9D8
:1012D00000F01EFE00F011FE002C03D02C48006828
:1012E000C06B20602A48006840300078022801D096
:1012F000002608E02649096808003C30CA6B0299BC
:101300008A430260012600212148006840300170B4
:1013100000F0FEFD300005B0F0BC08BC1847FFB57A
:1013200083B00D0016001F0001200290039C00F006
:10133000E4FD002F01D0E06B38604020005D01909B
:10134000022140200155330001F058F90538042AE4
:101350002E303900E06B2843E06331E01C00004090
:1013600088010040000200401402004014000040C8
:10137000100000403800004049444C450000000087
:10138000D70F00003400004020000040180000404B
:101390000C0000403C000040280000402C000040B1
:1013A000E06B401CE0630BE0E56309E00198022874
:1013B00001D0E56301E00020029001E000E0C046BA
:1013C000C046019801281AD1201D00F01EF96D4970
:1013D000E06A0968884202D96A49E06A0860142212
:1013E000E16A5143684A8818211D00F0E7F867490F
:1013F000E06A0968C96A884201D901F0E5F800F09D
:1014000087FD029807B0F0BC08BC1847FFB583B051
:101410000D0016001F0001200190039C0020009089
:10142000002F01D0E06B38604020005D0290022167
:1014300040200155330001F0E1F8051604080C0EB8
:101440001700E06B2843E0630FE0E06B401CE063B3
:101450000BE0E56309E00298022801D0E56301E0B2
:101460000020019001E000E0C046C046029801283B
:101470002BD147480068002813D1201D00F0C5F883
:101480004049E06A0968884202D93E49E06A08603A
:101490001422E16A51433C4A8818211D00F08EF85D
:1014A00004E0210018313B4800F088F83749E06A31
:1014B0000968C96A884208D90C98002802D001211D
:1014C0000C980160012034490860019807B0F0BC15
:1014D00008BC1847F8B505000E002C00002000904D
:1014E0004020075D02210155E06B401CE063012FA5
:1014F00029D127480068002813D1201D00F085F865
:101500002049E06A0968884202D91E49E06A0860F9
:101510001422E16A51431C4A8818211D00F04EF83C
:1015200004E0210018311B4800F048F81749E06A30
:101530000968C96A884206D9002E01D001203060AE
:10154000012015490860F8BC08BC184770B50500B3
:10155000002D02D10D48006800E02800060000F0D0
:10156000CCFC4020805D022804D100214020815520
:10157000012400E0002400F0CBFC200070BC08BC7B
:10158000184700001C000040880100400C0000408B
:101590003C000040000200402800004001000831EB
:1015A00041600021C943816001000831C1600161CF
:1015B00000210160704700210161704742684A6064
:1015C00093688B60936859609160086103685B1C45
:1015D0000360704710B402000B685C1C01D11069F5
:1015E00007E01000083000E04068446824689C422E
:1015F000FAD944684C604C68A160886041600A6117
:101600001468641C146010BC704701000A694B68C0
:1016100088689860081D09C858605068884201D1E0
:1016200088685060002008611068401E10601068D3
:10163000704770B505000E002C0000F05EFC216CB8
:10164000E06B484321684018A0600020A063206838
:101650006060E06B401E216C484321684118E160E6
:101660000021C9434420015545200155002E10D1C9
:101670002069002801D1012000E00020002810D1BD
:1016800020001030FFF71EFD00280AD000F09CFF5C
:1016900007E020001030FFF781FF20002430FFF723
:1016A0007DFF00F035FC012070BC08BC1847F8B580
:1016B00006000D001700069C002D01D1246000E0FB
:1016C0002760E663256401212000FFF7B2FFF8BC24
:1016D00008BC1847F7B582B007000D00002D01D1F6
:1016E000002601E03E006E433000483000F05DFC13
:1016F0000400002C0BD00194019C20004830019084
:10170000009429003800049B019AFFF7D0FF2000C5
:1017100005B0F0BC08BC184770B5040000F0EDFB44
:101720004520055714E0606A002801D1012000E03F
:101730000020002808D120002430FFF7C3FC002837
:1017400003D0FFF760FD00E004E0681E0006051608
:10175000002DE8DCC0460021C9434520015500F0BA
:10176000D7FB00F0CAFB4420055714E0206900288D
:1017700001D1012000E0002000280BD12000103012
:10178000FFF7A0FC002801D0FFF73DFD681E000612
:10179000051600E001E0002DE8DCC0460021C94349
:1017A0004420015500F0B4FB70BC08BC184770B56C
:1017B000050000F0A2FBA86BE96B884201D101246F
:1017C00000E0002400F0A4FB200070BC08BC184717
:1017D000F8B504000F00150000200090A66B206CE7
:1017E000002827D0002D0FD13900226C606800F04E
:1017F0005FFC216C606840186060A1686068884286
:1018000018D32068606015E03900226CE06800F0B1
:101810004FFC216CE068411AE1602168E068884271
:1018200003D2216CA068411AE160022D02D1002E82
:1018300000D0761E701CA0630098F8BC08BC184746
:10184000FFB583B007001D00002002903C00C04699
:1018500000F053FBA06BE16B884201D3022D21D134
:101860002A0020000499FFF7B3FF0600606A0028F1
:1018700001D1012000E00020002808D12000243000
:10188000FFF720FC002806D000F09EFE03E0002EAB
:1018900001D000F099FE00F03BFB012007B0F0BC46
:1018A00008BC18470598002803D100F031FB002040
:1018B000F4E70298002804D16846FFF771FC012084
:1018C000029000F025FBFFF788F900F016FB44209A
:1018D0000157491C00D1015545200157491C00D131
:1018E000015500F015FB05A96846FFF760FC0028CC
:1018F00019D12000FFF75BFF00280ED02000103028
:101900000599FFF7B8FB2000FFF706FFFFF7A8F8DF
:1019100000289DD100F058FE9AE72000FFF7FCFE5A
:10192000FFF79EF894E72000FFF7F6FEFFF798F820
:101930000020B3E7FFB583B0050016001F002C00A0
:1019400000200190A06BE16B884201D3022F26D1C9
:101950004520015700913A0020000499FFF738FF15
:101960000098401C12D1606A002801D1012000E0DB
:101970000020002810D120002430FFF7A3FB00280E
:101980000AD0002E08D00120306005E00098401CED
:1019900001060916452001550120029001E00020B2
:1019A0000290029807B0F0BC08BC1847FEB50500CD
:1019B0000E002C0000200290A06B0190E16B0198BA
:1019C000814223D94520015700910198401CA06312
:1019D0000098401C12D1606A002801D1012000E06B
:1019E0000020002810D120002430FFF76BFB0028D6
:1019F0000AD0002E08D00120306005E00098401C7D
:101A00000106091645200155012700E0002738008E
:101A1000FEBC08BC184770B5050000F06EFAA86B54
:101A2000002801D1012400E0002400F071FA200018
:101A300070BC08BC184770B504000D00206C00286D
:101A40000ED0216CE0684118E160A168E06888422E
:101A500001D32168E1602800226CE16800F028FBD6
:101A600070BC08BC1847F7B582B0050000272C00F1
:101A7000C04600F042FAA66B002E1CD0200003994D
:101A8000FFF7D9FF701EA0632069002801D1012053
:101A900000E00020002807D120001030FFF712FBE3
:101AA000002801D000F090FD00F032FA012005B0CE
:101AB000F0BC08BC18470498002803D100F028FAAD
:101AC0000020F4E7002F03D16846FFF769FB0127E8
:101AD00000F01EFAFFF781F800F00FFA44200157DA
:101AE000491C00D1015545200157491C00D1015521
:101AF00000F00EFA04A96846FFF759FB002819D137
:101B00002000FFF788FF00280ED020002430049921
:101B1000FFF7B1FA2000FFF7FFFDFEF7A1FF002855
:101B2000A7D100F051FDA4E72000FFF7F5FDFEF777
:101B300097FF9EE72000FFF7EFFDFEF791FF2000E3
:101B4000FFF769FF002894D00020B0E7F3B583B019
:101B5000050000272C00C04600F0CFF9A66B002E30
:101B600018D0701EA0632069002801D1012000E078
:101B70000020002807D120001030FFF7A3FA00282A
:101B800001D000F021FD00F0C3F9012005B0F0BC48
:101B900008BC18470498002803D100F0B9F90020C8
:101BA000F4E7002F03D101A8FFF7FAFA012700F0AC
:101BB000AFF9FFF712F800F0A0F944200157491CD3
:101BC00000D1015545200157491C00D1015500F0B5
:101BD0009FF904A901A8FFF7EAFA002819D120000B
:101BE000FFF719FF00280ED0200024300499FFF7DA
:101BF00042FA2000FFF790FDFEF732FF0028ABD13C
:101C000000F0E2FCA8E72000FFF786FDFEF728FFC2
:101C1000A2E72000FFF780FDFEF722FF2000FFF77C
:101C2000FAFE002898D00020B0E7F7B584B0050090
:101C300000272C00C04600F060F9A06B01900198CD
:101C400000281CD0E66820000599FFF7F4FEE66046
:101C5000606A002801D1012000E00020002807D19F
:101C600020002430FFF72EFA002801D000F0ACFC51
:101C700000F04EF9012007B0F0BC08BC18470698E8
:101C8000002803D100F044F90020F4E7002F03D12D
:101C900002A8FFF785FA012700F03AF9FEF79DFF49
:101CA00000F02BF944200157491C00D10155452073
:101CB0000157491C00D1015500F02AF906A902A8D4
:101CC000FFF775FA002819D12000FFF7A4FE0028BD
:101CD0000ED0200024300699FFF7CDF92000FFF741
:101CE0001BFDFEF7BDFE0028A5D100F06DFCA2E7AC
:101CF0002000FFF711FDFEF7B3FE9CE72000FFF781
:101D00000BFDFEF7ADFE2000FFF785FE002892D008
:101D10000020B0E7F7B584B0050016002C000020C5
:101D20000390A06B02900298002827D0442001570E
:101D3000019120000599FFF77EFE0298401EA063E6
:101D40000198401C12D12069002801D1012000E037
:101D50000020002810D120001030FFF7B3F9002830
:101D60000AD0002E08D00120306005E00198401C08
:101D70000106091644200155012700E0002738001C
:101D800007B0F0BC08BC1847F3B581B005002C00C3
:101D900000200090A06B002807D0E768200002997F
:101DA000FFF749FEE760012600E000263000FEBC98
:101DB00008BC184770B5040000F09FF8A56B00F050
:101DC000A7F8280070BC08BC184770B504002500AF
:101DD00000F093F8A96BE86B461A00F099F8300010
:101DE00070BC08BC184701000A00906B704770B5C2
:101DF00004002500280000F02CF970BC08BC18472E
:101E000001000A00936B002B01D1012000E00020AB
:101E1000704710B401000A00936BD46BA34201D148
:101E2000012000E0002010BC7047000030B4030027
:101E3000001F0C1D0460001F3F4C0460001F036066
:101E4000001F3E4C0460001F3D4C0460001F3D4CD1
:101E50000460001F3C4C0460001F3C4C0460001FE9
:101E60003B4C0460001F3B4C0460001F3A4C046074
:101E7000001F3A4C0460001F394C0460001F394CAD
:101E80000460001F64100460001F0260001F1F2414
:101E90000460CC07E40F03D0202504682C430460C1
:101EA000001F0024046030BC704700212E4AD1601E
:101EB0002E4811008861032151615114C968102214
:101EC00091432B4AD1601100096910221143284A1D
:101ED00011612849284A11602421284A11600121F2
:101EE000214A5160704710B5FFF7DFFF00F09EFAFE
:101EF000002010BC08BC1847704710B500F068FB04
:101F00001F480068401C1E49086010BC08BC1847E8
:101F100010B51B48006800280AD019480068401E08
:101F20001749086008000068002801D100F05CFB38
:101F300010BC08BC18470000AAAAAAAA12121212C2
:101F400011111111101010100909090908080808C9
:101F50000707070706060606050505050404040429
:101F60000303030302020202004000E0983A00006B
:101F700000F0FFFFF424000000F1FFFF00F2FFFF7C
:101F800048000040444AD008C000444A1060002283
:101F9000424B5A60424A434B5A6000221A60010089
:101FA0003F4A4A601A000A607047F8B504000020F2
:101FB0000090FEF712FE3C480068002804D1FFF7AD
:101FC000E1FF012038490860002C08D00834600780
:101FD000400F04D06007400F0821081A0419002C94
:101FE00031D02F4884422ED22C4F3800056801E0B2
:101FF0002F002D686868A04202D228680028F7D117
:10200000284885421FD0386808300090286838601A
:102010006868001B102810D92E196868001B7060B2
:102020006C6071681D4800E00068026852688A426E
:10203000FAD3026832600660C0461C4968680968C5
:10204000081A1A490860FEF70BFD0098F8BC08BC96
:10205000184770B506003500002E16D0083D2C003C
:10206000FEF7BBFD61680D4800E000680268526839
:102070008A42FAD30268226004600C4960680968E9
:1020800040180A490860FEF7EBFC70BC08BC184712
:102090000648006870477047440200405400004002
:1020A000F81700005C000040500000404C00004069
:1020B0007847C046030052E32A00009A03C010E2AA
:1020C0000800000A0130D1E402005CE30C2082E049
:1020D00001C0D1940130C0E40130D13401C0C094BA
:1020E000042042E20130C034033011E28700000ACC
:1020F000042052E21B00003A03C031E7020053E320
:102100000800000A0F00008A2C34A0E104C0B1E5E9
:10211000042052E20C3C83E1043080E4F9FFFF2A02
:10212000011081E20F0000EA2C38A0E104C0B1E503
:10213000042052E20C3883E1043080E4F9FFFF2AE6
:10214000021081E2070000EA2C3CA0E104C0B1E5E6
:10215000042052E20C3483E1043080E4F9FFFF2ACA
:10216000031081E20000A0E1822FB0E10130D12410
:1021700001C0D1240120D1440130C02401C0C024B9
:102180000120C0441EFF2FE1013090E12100004AF0
:102190000020B0E3A03071E01A00003A203271E074
:1021A0000F00003A203471E00100003A00C0A0E3C3
:1021B000200000EAA03371E0810340200220B2E059
:1021C000203371E0010340200220B2E0A03271E030
:1021D000810240200220B2E0203271E00102402062
:1021E0000220B2E0A03171E0810140200220B2E083
:1021F000203171E0010140200220B2E0A03071E006
:10220000810040200220B2E0011050E00010A03117
:102210000200A2E01EFF2FE1022111E20010614244
:1022200040C032E000006022203271E01D00003A20
:10223000203471E00F00003A0113A0E1203471E076
:102240003F2382E30B00003A0113A0E1203471E048
:102250003F2682E30700003A0113A0E1203471E039
:102260003F2982E30113A0213F2C8223003071E239
:102270001D00002A2113A021A03371E0810340201A
:102280000220B2E0203371E0010340200220B2E0DE
:10229000A03271E0810240200220B2E0203271E0E1
:1022A000010240200220B2E0A03171E08101402013
:1022B0000220B2E0203171E0010140200220B2E0B2
:1022C000EBFFFF2AA03071E0810040200220B2E045
:1022D000011050E00010A0310200A2E0CCCFB0E12C
:1022E00000006042001061221EFF2FE1CCCFB0E160
:1022F0000000604201402DE90000B0E30000A0E1D1
:102300000240BDE81EFF2FE1704770477047000094
:1023100010402DE9202052E20500003A1850B1E8A3
:10232000202052E21850A0E81850B1E81850A0E858
:10233000F9FFFF2A02CEB0E11850B1281850A028AA
:102340001800B1481800A0481040BDE802CFB0E125
:1023500004309124043080241EFF2F01822FB0E12D
:10236000B230D1200120D144B230C0200120C0447D
:102370001EFF2FE10E50A0E1180000EB05E0A0E1E8
:102380000050B0E10D10A0E10A30A0E10700C0E369
:1023900000D0A0E160D08DE220402DE99BF7FFEB5B
:1023A0002040BDE80060A0E30070A0E30080A0E34F
:1023B00000B0A0E30710C1E305C0A0E1C009ACE88C
:1023C000C009ACE8C009ACE8C009ACE801D0A0E1A4
:1023D0001EFF2FE10400C046C0462000FDF70EFF9F
:1023E00000009FE51EFF2FE13C1A004001C08FE274
:1023F0001CFF2FE101491820ABDFFEE72600020099
:102400001EFF2FE17847C0460020B0E3203171E085
:1024100079FFFF3AA03271E06EFFFF3A203471E09D
:1024200063FFFF3A00C0A0E382FFFFEA7847C0469F
:102430006C019FE5000090E500E090E564019FE5F8
:102440000200BEE8001080E50100BEE800F06FE188
:10245000FF7FDEE80000A0E13CE09EE504F05EE2E4
:10246000000000EF1EFF2FE104E08EE201002DE9E5
:1024700000204DE90000A0E104D04DE20100BDE8DC
:10248000004020E900E0A0E10100BDE8FF7F4EE947
:102490000000A0E13CE04EE200004FE101002EE927
:1024A00000019FE5000090E501002EE9F0009FE5A6
:1024B000001090E500E081E5EC009FE50FE0A0E171
:1024C00010FF2FE1D8009FE5000090E500E090E5C7
:1024D000D0009FE50200BEE8001080E50100BEE8E4
:1024E00000F06FE1FF7FDEE80000A0E13CE09EE548
:1024F00004F05EE201002DE900204DE90000A0E1BA
:1025000004D04DE20100BDE8004020E900E0A0E178
:102510000100BDE8FF7F4EE90000A0E13CE04EE293
:1025200000004FE101002EE978009FE5000090E5F2
:1025300001002EE968009FE5001090E500E081E5CC
:1025400068009FE50FE0A0E110FF2FE1000050E3DD
:102550000200000A50009FE50FE0A0E110FF2FE10C
:102560000100A0E348109FE5000081E544009FE5DD
:10257000000080E528009FE5000090E500E090E580
:1025800020009FE50200BEE8001080E50100BEE8E3
:1025900000F06FE1FF7FDEE80000A0E13CE09EE597
:1025A00004F05EE20C00004048000040690D0000AD
:1025B0006B090000004000E030F0FFFF00C09FE525
:1025C0001CFF2FE1D10400007847C046A3FFFFEABB
:1025D0007847C04600000FE1801080E301F021E160
:1025E000800000E21EFF2FE17847C04600000FE1A7
:1025F0008000C0E300F021E11EFF2FE17847C046D4
:1026000001C05EE50C0053E10100003A0C30DEE74A
:10261000000000EA0330DEE783C08EE01CFF2FE1FC
:102620004026000000000040640000004801000057
:10263000A4260000640000405C200000700100003F
:10264000000000000000000000000000000000008A
:10265000000000000000000000000000000000007A
:10266000000000000000000000000000000000006A
:10267000000000000000000000000000000000005A
:1026800000000000000000000F270000F817000005
:10269000000000000000000000000000000000003A
:0426A0000000000036
:0400000500000104F2
:00000001FF
