:020000040000FA
:1000000018F09FE518F09FE518F09FE518F09FE5C0
:1000100018F09FE50000A0E1F0FF1FE518F09FE554
:10002000580000004000000080220000480000004E
:100030004C000000000000005000000054000000D0
:10004000FEFFFFEAFEFFFFEAFEFFFFEAFEFFFFEA18
:10005000FEFFFFEAFEFFFFEA94009FE5AA10A0E37F
:100060005520A0E32430A0E3043080E50130A0E374
:10007000003080E50C1080E50C2080E5083090E52C
:10008000013B13E2FCFFFF0A0330A0E3003080E5F0
:100090000C1080E50C2080E558009FE50410A0E3DB
:1000A000041080E50210A0E3001080E548009FE501
:1000B000DBF021E300D0A0E1080040E2D7F021E32B
:1000C00000D0A0E1080040E2D1F021E300D0A0E19F
:1000D000080040E2D2F021E300D0A0E1030C40E2AE
:1000E000D3F021E300D0A0E1030C40E20C009FE537
:1000F00010FF2FE180C01FE000C01FE0B81F0040CC
:1001000004010000000000EB2E0000EB2C008FE249
:10011000000C90E800A08AE000B08BE001704AE299
:100120000B005AE10000001A260000EB0F00BAE8AD
:1001300018E04FE2010013E303F0471013FF2FE133
:10014000F422000014230000102052E27800B028AE
:100150007800A128FBFFFF8A822EB0E13000B02892
:100160003000A12800409045004081451EFF2FE14E
:100170000030B0E30040B0E30050B0E30060B0E313
:10018000102052E27800A128FCFFFF8A822EB0E105
:100190003000A128003081451EFF2FE101C08FE211
:1001A0001CFF2FE11FB5059886460FBC009C02B0CE
:1001B0007047000001C08FE21CFF2FE130B475468C
:1001C000AE4630BC70470000F90700EB0210A0E11A
:1001D000F1FFFFEB1CC09FE50FC08CE001001CE3AA
:1001E0000DE08F120FE0A0011CFF2FE101C08FE294
:1001F0001CFF2FE102F00EF8E90000007847C0462E
:1002000003002DE9EAFFFFEB0300BDE8060800EB61
:100210000C009FE50C109FE504209FE508309FE54A
:100220001EFF2FE198190040A01C004098190040C3
:1002300049E0344800783449087000F002F9314947
:100240000870314800780978884239D02D48007804
:10025000012806D0022807D0032809D004282DD170
:100260000AE000F097F92AE0322000F0B4F926E025
:10027000642000F0B0F922E0082000F0CAF90C2058
:1002800000F0A9F9642000F0B5F9042000F0C1F9EC
:10029000182000F0A0F9642000F0ACF9022000F072
:1002A000B8F9242000F097F9642000F0A3F90120A8
:1002B00000F0AFF9002000F08EF900E0C046C04623
:1002C000012000F074FCB4E782B000F0B3F800F055
:1002D00071F90020012103007F22009101900100AB
:1002E0000A4800F063FA0020022103007F220091F7
:1002F00001900100064800F059FA00F02AFEC046BD
:10030000FEE700000100004000000040A9040000DA
:1003100031020000434880690F2109040843414924
:10032000886170470F2109043E4AD161002806D038
:10033000012809D002280CD0032814D10EE0012195
:100340000904384A51610FE001214904354A5161DD
:100350000AE001218904334A516105E00121C90401
:10036000304A516100E0C046C046704700B5030006
:10037000002B02D0012B12D108E02B480068401C52
:10038000294908608007800F086009E02648006856
:10039000401E254908608007800F086000E0C046C5
:1003A000C04621490878FFF7BDFF08BC184700B5D3
:1003B0000020FFF7DBFF08BC184700B50120FFF75E
:1003C000D5FF08BC1847002806D0012809D002280C
:1003D0000CD0032814D10EE001210904134A116046
:1003E0000EE001214904114A116009E0012189044C
:1003F0000E4A116004E00121C9040C4A1160C04694
:10040000C0460B490968094A12685140084A116000
:1004100011000968034A516105490968C943D1615E
:1004200070470000008002E00C000040080000401F
:100430000400004012488068F02188431049886019
:1004400070470F4800681021084201D10120704711
:100450000B4800684021084201D10220F7E7084814
:1004600000682021084201D10320F0E70448006819
:100470008021084201D10420E9E70020E7E70000DD
:10048000008002E06A488068012189028843684947
:10049000886070476648006801218902084201D1DE
:1004A000002070470120FCE782B072E061480078CC
:1004B000002804D0012836D0022865D10FE0FFF7CC
:1004C000E9FF002805D15B49486088600120087079
:1004D00004E0FFF76CFF00205649087054E05548CF
:1004E000406854498968884209D9FFF760FF51483C
:1004F0004068401E4F4948600220087012E04D4895
:1005000040684C498968884209D2FFF756FF49483C
:100510004068401C474948600220087002E0012002
:100520004449087030E0444903C96A4603C20022C6
:10053000D24369464148006801F049FA012822D1B6
:1005400068460078002819D0012811D0022802D06E
:10055000032817D106E0019800F029FB0120354956
:1005600008700FE03349019808740120087009E011
:100570003049019888600220087003E000202D496E
:100580000870C046C046C046C0462A49087C00F0F4
:100590000EFB8BE700B585B01421684601F0A8FD7D
:1005A00000231A0069462548006801F0FDF805B0EF
:1005B00008BC184710B500220821142001F03EF8AD
:1005C0001E490860FFF75EFFFFF7A4FEFFF7E2FF9A
:1005D00010BC08BC18471CB504000120694608700F
:1005E000019400231A001548006801F0DDF81CBCD6
:1005F00008BC18471CB50400022069460870019425
:1006000000231A000D48006801F0CEF81CBC08BC9D
:1006100018471CB5040003206946087001940023A4
:100620001A000648006801F0BFF81CBC08BC184757
:10063000008002E0100000402C2400002400004054
:1006400010B5002406E014216143FD4A881800F02B
:1006500059FF641C042CF6D3FA4800F053FFFA4803
:1006600000F050FFF94800F04DFFF94800F04AFF54
:10067000F84800F047FFF348F7490860F248F749A7
:10068000086010BC08BC184710B5040001F0E9FB75
:10069000F3480068401CF2490860F24800680028EE
:1006A00008D1F04804600800006801280ED1FFF767
:1006B000C7FF0BE0EC480068002807D1E948006854
:1006C000C06AE16A884201D8E6480460E7480068E9
:1006D000401CE6490860E649E06A0968884202D998
:1006E000E349E06A08601422E16A5143D44A881859
:1006F000211D00F017FF01F0BFFBDB480068002858
:1007000007D0D8480068C06AE16A884201D201F087
:1007100061FE10BC08BC1847FFB581B00E000A9FEF
:100720000C9C216B0398401E8000081800900098D4
:10073000C008C0000090002E11D0002508E0715DB7
:10074000200034304155705D002800D102E06D1C5E
:10075000082DF4D3C04600213B20015502E00021C2
:1007600034200155042F00D30327E762201D00F039
:10077000D6FE2000183000F0D2FE24610420C01BF9
:10078000A06164620020E063002140200155049ACA
:10079000684603C801F0FEFA20600B98002801D0DB
:1007A0000B98046005B0F0BC08BC1847FFB585B0D5
:1007B0001700B80001F0ADFB0600002E0BD044205E
:1007C00001F0A7FB0400002C01D0266304E03000F8
:1007D00001F0F3FB00E00024002C10D000220EA852
:1007E00003C86B4613C303923A00089B05A803C8CD
:1007F000FFF792FF2000FFF747FF012501E00025EA
:10080000ED43280009B0F0BC08BC184792490968BC
:100810000968002901D1012100E00021002904D04C
:100820000021C943934A116006E08B490968C968F1
:10083000C868904A41681160704710B50400206B89
:1008400001F0BBFB200001F0B8FB10BC08BC18474E
:1008500070B5050001F005FB002D02D1814800684C
:1008600000E028000400201D00F083FEA06A00289C
:1008700003D02000183000F07CFE7C480068401C4B
:100880007A49086077480068844209D1211D704880
:1008900000F048FE78480068401C7749086009E08D
:1008A0006F480068401E6E4908602000FFF7C5FFD2
:1008B000FFF7ACFF01F0E0FA6B480068002805D0B4
:1008C00068480068844201D101F084FD70BC08BC16
:1008D0001847F8B50020009068480068002864D1E7
:1008E00067480068451C66480560002D0FD15A48CE
:1008F00007685A48006858490860584807606148C6
:100900000068401C5F490860FFF780FFC0465948F7
:10091000006885423DD3C0464F4800680068002803
:1009200001D1012000E00020002804D00020C043B5
:10093000504908602CE048480068C068C468666890
:10094000B54202D24B48066022E0201D00F011FEA5
:10095000A06A002803D02000183000F00AFE4449A5
:10096000E06A0968884202D94149E06A08601422B5
:10097000E16A5143324A8818211D00F0D3FD3949FC
:10098000E06A0968C96A8842C6D301200090C3E7BB
:10099000C04634480068C06A1421484328490858B2
:1009A000012801D90120009004E037480068401C6C
:1009B0003549086035480068002801D001200090C2
:1009C0000098F8BC08BC184770B50024002601F058
:1009D00048FA2A480068401E284908600800006854
:1009E000002875D11E480068002871D022E0174801
:1009F000C068C4682000183000F0BBFD201D00F066
:100A0000B8FD1B49E06A0968884202D91849E06AC2
:100A100008601422E16A5143094A8818211D00F038
:100A200081FD1049E06A0968C96A884202D3012041
:100A30001649086005480068002829D1012028E0EF
:100A400080000040D0000040E4000040F80000407A
:100A50000C010040200100405C00004060000040AC
:100A600030000040280000403C0000404C000040A6
:100A700038000040500000402C000040580000406A
:100A80003400004048000040400000404400004066
:100A900000200028ABD0002C01D0FFF7B7FEFE48A5
:100AA0000568002D0DD0C046FFF713FF002802D0C7
:100AB0000120FA4908606D1E002DF5D10020F6498D
:100AC0000860F6480068002802D0012601F082FC88
:100AD00001F0D2F9300070BC08BC1847F8B5050029
:100AE0000E00EF480768EF480068001D00F041FD68
:100AF000681C08D1002E06D0EA480168091DEA48A2
:100B000000F010FD1AE07C19E64800684460BC4221
:100B100007D2E4480168091DE448006800F00EFDB2
:100B20000CE0E0480168091DE148006800F006FD9E
:100B3000E0480068844201D2DE480460F8BC08BC8A
:100B40001847DD480068401CDB4908607047F3B572
:100B500081B0040000200090FFF7F3FFD048066842
:100B6000216802980D182068B04207D92068A84271
:100B70000BD9B54209D90120009006E02068A842AF
:100B800001D8B54201D901200090256000980028C5
:100B900003D0A81B0021FFF7A1FFFFF715FF0700F7
:100BA000002F01D101F016FCFEBC08BC184770B53F
:100BB00004000025002C08D0FFF7C3FF002120000F
:100BC000FFF78CFFFFF700FF0500002D01D101F0BA
:100BD00001FC70BC08BC184770B5040001F041F975
:100BE000002C02D1AF48006800E020000600F56A42
:100BF00001F042F9280070BC08BC184710B401008D
:100C00000023002902D1A74C246800E00C00220038
:100C1000D06A10BC7047FEB507000D0000200090A0
:100C2000042D00D3032501F01CF9002F02D19D48AB
:100C3000006800E038000400E66AAE4243D0B542E6
:100C40000BD99848006884420DD096480068C06A65
:100C5000A84208D80120009005E09248006884422C
:100C600001D101200090E06A0190E562A069C00F07
:100C7000C00702D10420401BA061616914220198C1
:100C800050438E4A8018814201D1012000E00020AB
:100C9000002812D0201D00F06CFC8949E06A096828
:100CA000884202D98649E06A08601422E16A514309
:100CB000824A8818211D00F035FC0098002801D0D8
:100CC00001F088FBC04601F0D7F8FEBC08BC18470D
:100CD00079480068002803D001207049086027E0A7
:100CE00000206E4908607648016800E0491E142023
:100CF0004843724A1058002801D1012000E000202A
:100D00000028F3D114224A436C4BD0184268526831
:100D10004260020008324368934202D1426852683E
:100D200042604268D2685F4B1A6065480160C04605
:100D3000704770B5050001F094F8002D02D15948B4
:100D4000006800E028000400201D00F012FCA06AEA
:100D5000002803D02000183000F00BFC211D524861
:100D600000F0E0FB4020005D012802D1002140207E
:100D7000015501F081F853480068002805D001F0C2
:100D800070F8FFF743FD01F077F8464800688442A9
:100D900012D14C480068002802D001F01BFB0BE088
:100DA0004148006848490968884203D100203D490C
:100DB000086001E0FFF78CFF70BC08BC184710B456
:100DC000010000200A00384C5369A34201D10123DD
:100DD00000E00023002B11D03C4C936AA34201D1C8
:100DE000012300E00023002B08D1936A002B01D1DE
:100DF000012300E00023002B00D0012010BC70472D
:100E000070B505002C0027480068844225D0002CCE
:100E100023D001F026F82000FFF7D1FF00281AD0D8
:100E2000201D00F0A6FB2649E06A0968884202D925
:100E30002349E06A08601422E16A51431F4A881876
:100E4000211D00F06FFB1749E06A0968C96A8842F2
:100E500001D301F0BFFA01F00FF870BC08BC1847CD
:100E6000F8B5050000262C0000272000FFF7A7FF9B
:100E7000002840D010480068002837D10949E06AAE
:100E80000968C96A884200D30126201D00F071FB61
:100E90000B49E06A09681BE0400000404400004044
:100EA0003400004028000040200100406000004065
:100EB0005C000040500000405800004080000040AE
:100EC000380000403C00004030000040F800004086
:100ED000884202D9FB49E06A08601422E16A514362
:100EE000F94A8818211D00F01DFB04E0210018318B
:100EF000F64800F017FB3000F8BC08BC184710B5E6
:100F000016E000F0AEFFF248C068C468201D00F093
:100F100030FBF0480068401EEE490860EE4800686B
:100F2000401EED49086000F0A7FF2000FFF785FC98
:100F3000E94800680028E4D110BC08BC1847C04646
:100F4000FFF7DDFFE04800680128F9D901F042FA17
:100F5000F6E71CB5E14800210B005A2200910190F0
:100F6000DFA1E148FFF722FC0400012C0CD101F0C5
:100F700035FAA01EDD4908600120DD490860002027
:100F8000DC49086000F063FF1CBC08BC184710B5C2
:100F900001F024FA0020D649086000F061FF10BC7F
:100FA00008BC184710B500F05CFFD248046800F098
:100FB00063FF200010BC08BC18470021CD4A106810
:100FC0007047C448006870470100002902D1CA4830
:100FD000006800E00800020010003430704770B56F
:100FE00005000C00C44801681831280000F0A6FA7A
:100FF00001212000FFF772FD70BC08BC184770B5D6
:1010000006000C0015000120C0072043BA490968FA
:101010008861B94801681831300000F083FA012175
:101020002800FFF75BFD70BC08BC184770B50600D0
:10103000F068C4682000183000F09BFAAF480068E0
:10104000002813D1201D00F094FA9E49E06A096837
:10105000884202D99B49E06A08601422E16A514340
:10106000994A8818211D00F05DFA04E0210018312A
:10107000964800F057FAA049E06A0968C96A8842B0
:1010800004D9012501209E49086000E000252800C0
:1010900070BC08BC184770B505000E000120C007E1
:1010A00030432860EC68280000F063FA201D00F04F
:1010B00060FA8449E06A0968884202D98149E06A95
:1010C00008601422E16A51437F4A8818211D00F00C
:1010D00029FA8949E06A0968C96A884202D9012067
:1010E0008749086070BC08BC184710B5040000F0C0
:1010F000B8FE8448006820607E480068606000F0A8
:10110000BBFE10BC08BC18477E49096801607949DC
:1011100009684160704770B506000C0000F0A1FE40
:10112000744802687068131A2068401C01D10025B9
:1011300017E0744930680968884204D070689042AA
:1011400001D801250DE02068984207D92068C01A0F
:1011500020603000FFF7D8FF002502E0002020606B
:10116000012500F089FE280070BC08BC184701204A
:101170006349086070476049096888695E49096881
:10118000C96A0422511A5C4A12689161704770B5AD
:1011900006000D0000F065FE57480068C06B00288F
:1011A0000BD101215448006840300170002D04D05B
:1011B0002800FFF793FC01F00DF900F05DFE00F050
:1011C00050FE4D480068C46B002C0AD0002E04D09D
:1011D000002049490968C86303E0601E4649096860
:1011E000C8630021444800684030017000F044FEAC
:1011F000200070BC08BC1847FFB581B00700140080
:101200001D0000F02EFE3C480068403000780228A7
:1012100012D03949096808003C30C96BB9430160F4
:1012200001213548006840300170002D04D02800AD
:10123000FFF754FC01F0CEF800F01EFE00F011FEA6
:10124000002C03D02C480068C06B20602A4800683E
:1012500040300078022801D0002608E026490968BD
:1012600008003C30CA6B02998A43026001260021C3
:10127000214800684030017000F0FEFD300005B0EC
:10128000F0BC08BC1847FFB583B00D0016001F0066
:1012900001200290039C00F0E4FD002F01D0E06BE0
:1012A00038604020005D019002214020015533004C
:1012B00001F0AAF80538042A2E303900E06B2843E3
:1012C000E06331E03800004080000040F80000405A
:1012D0000C010040300000402C0000405400004051
:1012E00049444C45000000003F0F00005000004002
:1012F0003C000040340000402800004058000040FE
:101300004400004048000040E06B401CE0630BE0FC
:10131000E56309E00198022801D0E56301E00020BF
:10132000029001E000E0C046C046019801281AD1B1
:10133000201D00F01EF96D49E06A0968884202D953
:101340006A49E06A08601422E16A5143684A8818D1
:10135000211D00F0E7F86749E06A0968C96A884218
:1013600001D901F037F800F087FD029807B0F0BC12
:1013700008BC1847FFB583B00D0016001F00012000
:101380000190039C00200090002F01D0E06B38609A
:101390004020005D0290022140200155330001F001
:1013A00033F8051604080C0E1700E06B2843E063C1
:1013B0000FE0E06B401CE0630BE0E56309E002989E
:1013C000022801D0E56301E00020019001E000E087
:1013D000C046C046029801282BD147480068002823
:1013E00013D1201D00F0C5F84049E06A0968884221
:1013F00002D93E49E06A08601422E16A51433C4A3E
:101400008818211D00F08EF804E0210018313B48B7
:1014100000F088F83749E06A0968C96A884208D943
:101420000C98002802D001210C9801600120344959
:101430000860019807B0F0BC08BC1847F8B5050073
:101440000E002C00002000904020075D0221015575
:10145000E06B401CE063012F29D127480068002879
:1014600013D1201D00F085F82049E06A0968884200
:1014700002D91E49E06A08601422E16A51431C4AFD
:101480008818211D00F04EF804E0210018311B4897
:1014900000F048F81749E06A0968C96A884206D925
:1014A000002E01D001203060012015490860F8BCF1
:1014B00008BC184770B50500002D02D10D48006822
:1014C00000E02800060000F0CCFC4020805D0228EF
:1014D00004D1002140208155012400E0002400F0C7
:1014E000CBFC200070BC08BC18470000380000404E
:1014F000800000402800004058000040F8000040F4
:10150000440000400100083141600021C94381606E
:1015100001000831C16001610021016070470021B4
:101520000161704742684A6093688B6093685960B4
:101530009160086103685B1C0360704710B402008F
:101540000B685C1C01D1106907E01000083000E056
:101550004068446824689C42FAD944684C604C68EE
:10156000A160886041600A611468641C146010BC4A
:10157000704701000A694B6888689860081D09C8AF
:1015800058605068884201D1886850600020086126
:101590001068401E10601068704770B505000E009E
:1015A0002C0000F05EFC216CE06B48432168401881
:1015B000A0600020A06320686060E06B401E216C8A
:1015C000484321684118E1600021C9434420015586
:1015D00045200155002E10D12069002801D101209D
:1015E00000E00020002810D120001030FFF71EFD81
:1015F00000280AD000F0EEFE07E020001030FFF7D0
:1016000081FF20002430FFF77DFF00F035FC012032
:1016100070BC08BC1847F8B506000D001700069C02
:10162000002D01D1246000E02760E66325640121DC
:101630002000FFF7B2FFF8BC08BC1847F7B582B02E
:1016400007000D00002D01D1002601E03E006E4391
:101650003000483000F05DFC0400002C0BD00194F9
:10166000019C200048300190009429003800049B20
:10167000019AFFF7D0FF200005B0F0BC08BC184766
:1016800070B5040000F0EDFB4520055714E0606ADA
:10169000002801D1012000E00020002808D120000E
:1016A0002430FFF7C3FC002803D0FFF760FD00E003
:1016B00004E0681E00060516002DE8DCC046002187
:1016C000C9434520015500F0D7FB00F0CAFB442078
:1016D000055714E02069002801D1012000E0002016
:1016E00000280BD120001030FFF7A0FC002801D00B
:1016F000FFF73DFD681E0006051600E001E0002D25
:10170000E8DCC0460021C9434420015500F0B4FB89
:1017100070BC08BC184770B5050000F0A2FBA86BB0
:10172000E96B884201D1012400E0002400F0A4FB11
:10173000200070BC08BC1847F8B504000F00150065
:1017400000200090A66B206C002827D0002D0FD120
:101750003900226C606800F05FFC216C6068401802
:101760006060A1686068884218D32068606015E0F6
:101770003900226CE06800F04FFC216CE068411AEF
:10178000E1602168E068884203D2216CA068411AB8
:10179000E160022D02D1002E00D0761E701CA063E5
:1017A0000098F8BC08BC1847FFB583B007001D00BF
:1017B000002002903C00C04600F053FBA06BE16BA0
:1017C000884201D3022D21D12A0020000499FFF77D
:1017D000B3FF0600606A002801D1012000E000206C
:1017E000002808D120002430FFF720FC002806D074
:1017F00000F0F0FD03E0002E01D000F0EBFD00F062
:101800003BFB012007B0F0BC08BC18470598002836
:1018100003D100F031FB0020F4E70298002804D146
:101820006846FFF771FC0120029000F025FBFFF7EE
:1018300088F900F016FB44200157491C00D10155DE
:1018400045200157491C00D1015500F015FB05A9A1
:101850006846FFF760FC002819D12000FFF75BFF06
:1018600000280ED0200010300599FFF7B8FB2000AB
:10187000FFF706FFFFF7A8F800289DD100F0AAFDAA
:101880009AE72000FFF7FCFEFFF79EF894E72000A0
:10189000FFF7F6FEFFF798F80020B3E7FFB583B037
:1018A000050016001F002C0000200190A06BE16BCA
:1018B000884201D3022F26D14520015700913A00DA
:1018C00020000499FFF738FF0098401C12D1606A8D
:1018D000002801D1012000E00020002810D12000C4
:1018E0002430FFF7A3FB00280AD0002E08D00120E7
:1018F000306005E00098401C01060916452001559E
:101900000120029001E000200290029807B0F0BC94
:1019100008BC1847FEB505000E002C000020029000
:10192000A06B0190E16B0198814223D945200157BA
:1019300000910198401CA0630098401C12D1606A7D
:10194000002801D1012000E00020002810D1200053
:101950002430FFF76BFB00280AD0002E08D00120AE
:10196000306005E00098401C01060916452001552D
:10197000012700E000273800FEBC08BC184770B5FE
:10198000050000F06EFAA86B002801D1012400E0E8
:10199000002400F071FA200070BC08BC184770B534
:1019A00004000D00206C00280ED0216CE068411866
:1019B000E160A168E068884201D32168E160280005
:1019C000226CE16800F028FB70BC08BC1847F7B532
:1019D00082B0050000272C00C04600F042FAA66B3A
:1019E000002E1CD020000399FFF7D9FF701EA063C2
:1019F0002069002801D1012000E00020002807D143
:101A000020001030FFF712FB002801D000F0E2FCAC
:101A100000F032FA012005B0F0BC08BC1847049869
:101A2000002803D100F028FA0020F4E7002F03D1AA
:101A30006846FFF769FB012700F01EFAFFF781F8FF
:101A400000F00FFA44200157491C00D101554520F0
:101A50000157491C00D1015500F00EFA04A968464F
:101A6000FFF759FB002819D12000FFF788FF002855
:101A70000ED0200024300499FFF7B1FA2000FFF7C0
:101A8000FFFDFEF7A1FF0028A7D100F0A3FCA4E70B
:101A90002000FFF7F5FDFEF797FF9EE72000FFF718
:101AA000EFFDFEF791FF2000FFF769FF002894D0BB
:101AB0000020B0E7F3B583B0050000272C00C04636
:101AC00000F0CFF9A66B002E18D0701EA06320691D
:101AD000002801D1012000E00020002807D12000CB
:101AE0001030FFF7A3FA002801D000F073FC00F0DB
:101AF000C3F9012005B0F0BC08BC184704980028C1
:101B000003D100F0B9F90020F4E7002F03D101A8B8
:101B1000FFF7FAFA012700F0AFF9FFF712F800F02B
:101B2000A0F944200157491C00D101554520015717
:101B3000491C00D1015500F09FF904A901A8FFF745
:101B4000EAFA002819D12000FFF719FF00280ED06B
:101B5000200024300499FFF742FA2000FFF790FD9F
:101B6000FEF732FF0028ABD100F034FCA8E72000DC
:101B7000FFF786FDFEF728FFA2E72000FFF780FDB4
:101B8000FEF722FF2000FFF7FAFE002898D0002081
:101B9000B0E7F7B584B0050000272C00C04600F080
:101BA00060F9A06B0190019800281CD0E668200025
:101BB0000599FFF7F4FEE660606A002801D1012074
:101BC00000E00020002807D120002430FFF72EFA83
:101BD000002801D000F0FEFB00F04EF9012007B014
:101BE000F0BC08BC18470698002803D100F044F95F
:101BF0000020F4E7002F03D102A8FFF785FA0127A0
:101C000000F03AF9FEF79DFF00F02BF94420015750
:101C1000491C00D1015545200157491C00D10155EF
:101C200000F02AF906A902A8FFF775FA002819D1D1
:101C30002000FFF7A4FE00280ED0200024300699D3
:101C4000FFF7CDF92000FFF71BFDFEF7BDFE0028D2
:101C5000A5D100F0BFFBA2E72000FFF711FDFEF7C2
:101C6000B3FE9CE72000FFF70BFDFEF7ADFE200062
:101C7000FFF785FE002892D00020B0E7F7B584B0CA
:101C8000050016002C0000200390A06B0290029823
:101C9000002827D044200157019120000599FFF723
:101CA0007EFE0298401EA0630198401C12D120695C
:101CB000002801D1012000E00020002810D12000E0
:101CC0001030FFF7B3F900280AD0002E08D0012009
:101CD000306005E00198401C0106091644200155BA
:101CE000012700E00027380007B0F0BC08BC184707
:101CF000F3B581B005002C0000200090A06B0028F7
:101D000007D0E76820000299FFF749FEE760012647
:101D100000E000263000FEBC08BC184770B5040087
:101D200000F09FF8A56B00F0A7F8280070BC08BC75
:101D3000184770B50400250000F093F8A96BE86B14
:101D4000461A00F099F8300070BC08BC1847010032
:101D50000A00906B704770B504002500280000F061
:101D60002CF970BC08BC184701000A00936B002BCB
:101D700001D1012000E00020704710B401000A00EA
:101D8000936BD46BA34201D1012000E0002010BC72
:101D90007047000030B40300001F0C1D0460001FDA
:101DA0003F4C0460001F0360001F3E4C0460001F96
:101DB0003D4C0460001F3D4C0460001F3C4C04601F
:101DC000001F3C4C0460001F3B4C0460001F3B4C58
:101DD0000460001F3A4C0460001F3A4C0460001F6E
:101DE000394C0460001F394C0460001F641004600B
:101DF000001F0260001F1F240460CC07E40F03D003
:101E0000202504682C430460001F0024046030BCBB
:101E1000704700212E4AD1602E48110088610321AD
:101E200051615114C968102291432B4AD1601100AD
:101E3000096910221143284A11612849284A116072
:101E40002421284A11600121214A5160704710B5B0
:101E5000FFF7DFFF00F0F6F9002010BC08BC1847C0
:101E6000704710B500F0BAFA1F480068401C1E49C0
:101E7000086010BC08BC184710B51B480068002853
:101E80000AD019480068401E174908600800006819
:101E9000002801D100F0AEFA10BC08BC18470000C1
:101EA000AAAAAAAA121212121111111110101010BE
:101EB00009090909080808080707070706060606AA
:101EC00005050505040404040303030302020202DA
:101ED000004000E0F824010000F0FFFF0C230000A8
:101EE00000F1FFFF00F2FFFF64000040444AD00809
:101EF000C000444A10600022424B5A60424A434BA1
:101F00005A6000221A6001003F4A4A601A000A60C3
:101F10007047F8B5040000200090FEF712FE3C4820
:101F20000068002804D1FFF7E1FF0120384908606C
:101F3000002C08D008346007400F04D06007400F21
:101F40000821081A0419002C31D02F4884422ED2BF
:101F50002C4F3800056801E02F002D686868A0420A
:101F600002D228680028F7D1284885421FD0386857
:101F700008300090286838606868001B102810D965
:101F80002E196868001B70606C6071681D4800E065
:101F90000068026852688A42FAD3026832600660BA
:101FA000C0461C4968680968081A1A490860FEF7A3
:101FB0000BFD0098F8BC08BC184770B5060035004A
:101FC000002E16D0083D2C00FEF7BBFD61680D48C1
:101FD00000E00068026852688A42FAD30268226010
:101FE00004600C496068096840180A490860FEF7F7
:101FF000EBFC70BC08BC1847064800687047704787
:102000003C01004070000040F817000078000040DC
:102010006C000040680000407847C046030052E36F
:102020002A00009A03C010E20800000A0130D1E43F
:1020300002005CE30C2082E001C0D1940130C0E4D6
:102040000130D13401C0C094042042E20130C034D8
:10205000033011E23D00000A042052E21B00003A66
:1020600003C031E7020053E30800000A0F00008AB2
:102070002C34A0E104C0B1E5042052E20C3C83E121
:10208000043080E4F9FFFF2A011081E20F0000EA2A
:102090002C38A0E104C0B1E5042052E20C3883E101
:1020A000043080E4F9FFFF2A021081E2070000EA11
:1020B0002C3CA0E104C0B1E5042052E20C3483E1E1
:1020C000043080E4F9FFFF2A031081E20000A0E160
:1020D000822FB0E10130D12401C0D1240120D144AC
:1020E0000130C02401C0C0240120C0441EFF2FE1E4
:1020F0007847C0460020A0E300402DE90230A0E16F
:1021000002C0A0E102E0A0E1201051E20C50A028A2
:102110000C50A02820105122FBFFFF2A011EB0E125
:102120000C50A0280C00A0480040BDE80111B0E10F
:10213000042080241EFF2F01B220C040010111E3C2
:102140000120C0141EFF2FE1704770477047000048
:1021500010402DE9202052E20500003A1850B1E865
:10216000202052E21850A0E81850B1E81850A0E81A
:10217000F9FFFF2A02CEB0E11850B1281850A0286C
:102180001800B1481800A0481040BDE802CFB0E1E7
:1021900004309124043080241EFF2F01822FB0E1EF
:1021A000B230D1200120D144B230C0200120C0443F
:1021B0001EFF2FE10E50A0E1180000EB05E0A0E1AA
:1021C0000050B0E10D10A0E10A30A0E10700C0E32B
:1021D00000D0A0E160D08DE220402DE90BF8FFEBAC
:1021E0002040BDE80060A0E30070A0E30080A0E311
:1021F00000B0A0E30710C1E305C0A0E1C009ACE84E
:10220000C009ACE8C009ACE8C009ACE801D0A0E165
:102210001EFF2FE10400C046C0462000FDF7EEFF80
:1022200000009FE51EFF2FE13419004001C08FE23E
:102230001CFF2FE101491820ABDFFEE7260002005A
:102240001EFF2FE17847C0466C019FE5000090E536
:1022500000E090E564019FE50200BEE8001080E523
:102260000100BEE800F06FE1FF7FDEE80000A0E1C2
:102270003CE09EE504F05EE2000000EF1EFF2FE16F
:1022800004E08EE201002DE900204DE90000A0E10C
:1022900004D04DE20100BDE8004020E900E0A0E1EB
:1022A0000100BDE8FF7F4EE90000A0E13CE04EE206
:1022B00000004FE101002EE900019FE5000090E5DC
:1022C00001002EE9F0009FE5001090E500E081E5B7
:1022D000EC009FE50FE0A0E110FF2FE1D8009FE5A3
:1022E000000090E500E090E5D0009FE50200BEE828
:1022F000001080E50100BEE800F06FE1FF7FDEE83E
:102300000000A0E13CE09EE504F05EE201002DE962
:1023100000204DE90000A0E104D04DE20100BDE83D
:10232000004020E900E0A0E10100BDE8FF7F4EE9A8
:102330000000A0E13CE04EE200004FE101002EE988
:1023400078009FE5000090E501002EE968009FE518
:10235000001090E500E081E568009FE50FE0A0E156
:1023600010FF2FE1000050E30200000A50009FE53B
:102370000FE0A0E110FF2FE10100A0E348109FE56E
:10238000000081E544009FE5000080E528009FE50E
:10239000000090E500E090E520009FE50200BEE827
:1023A000001080E50100BEE800F06FE1FF7FDEE88D
:1023B0000000A0E13CE09EE504F05EE22800004061
:1023C00064000040D10C0000D3080000004000E091
:1023D00030F0FFFF7847C046A6FFFFEA7847C046C7
:1023E00000000FE1801080E301F021E1800000E2B5
:1023F0001EFF2FE17847C04600000FE18000C0E3D8
:1024000000F021E11EFF2FE17847C04601C05EE5E4
:102410000C0053E10100003A0C30DEE7000000EA56
:102420000330DEE783C08EE01CFF2FE101000000D7
:102430000000000054240000000000408000000064
:1024400048010000D424000080000040381F000034
:10245000700100000000000000000000000000000B
:10246000000000000000000000000000000000006C
:10247000000000000A000000000000000000000052
:10248000000000000000000000000000000000004C
:10249000000000000000000000000000000000003C
:1024A000000000000000000000000000000000002C
:1024B00000000000000000000F270000F8170000D7
:1024C000000000000000000000000000000000000C
:0424D0000000000008
:0400000500000104F2
:00000001FF
